:020000041000EA
:1000000000B5324B212058609868022188439860DF
:10001000D860186158612E4B002199600221596106
:100020000121F02299502B49196001219960352056
:1000300000F044F80222904214D00621196600F024
:1000400034F8196E01211966002018661A6600F04E
:100050002CF8196E196E196E052000F02FF8012189
:100060000842F9D1002199601B49196000215960AB
:100070001A491B48016001219960EB211966A021F2
:10008000196600F012F800219960164914480160C1
:100090000121996001BC002800D000471248134993
:1000A000086003C880F30888084703B5996A0420EC
:1000B0000142FBD001200142F8D103BD02B5186610
:1000C0001866FFF7F2FF186E186E02BD00000240BE
:1000D000000000180000070000035F00212200005C
:1000E000F4000018222000A00001001008ED00E03C
:1000F00000000000000000000000000074B24E7A12
:1001000000200420F7010010C3010010C5010010F9
:10011000C1010010C1010010C1010010C101001097
:10012000C1010010C1010010C1010010C701001081
:10013000C1010010C1010010C9010010CB01001065
:10014000CD010010CD010010CD010010CD01001037
:10015000CD010010CD010010CD010010CD01001027
:10016000CD010010CD010010CD010010CD01001017
:10017000CD010010CD010010CD010010CD01001007
:10018000CD010010CD010010CD010010CD010010F7
:10019000CD010010CD010010CD010010CD010010E7
:1001A000CD010010CD010010CD010010CD010010D7
:1001B000CD010010CD010010CD010010CD010010C7
:1001C00000BE00BE00BE00BE00BE00BEEFF3058054
:1001D000103800BEF2EB8871941B0010B01B0010A9
:1001E0003802001090A31AE71E481F49086006C88D
:1001F00081F3088810471D480068002801D019487D
:10020000F3E70DA40ECC002902D000F012F8F9E7B4
:100210001749184A002000E001C19142FCD116495B
:100220008847164988471649884700BEFDE701C937
:1002300001C29A42FBD37047B01B0010C0000020DF
:1002400048020020381D0010000004200000042097
:10025000381D0010001004200010042000000000D1
:10026000704700000000000008ED00E0000000D032
:100270004802002034060020FD1500108D030010F8
:10028000F5150010F8B5C0460448054B10B583427B
:1002900003D0044B002B00D0984710BD480200202B
:1002A000480200200000000006480749091A8B1088
:1002B000C90FC91810B5491003D0044B002B00D04A
:1002C000984710BD480200204802002000000000AE
:1002D00010B5074C2378002B09D1FFF7D5FF054B4C
:1002E000002B02D0044800E000BF0123237010BDA2
:1002F000C803002000000000B81A0010054B10B51C
:10030000002B03D00449054800E000BFFFF7CCFFF5
:1003100010BDC04600000000CC030020B81A001039
:100320009823F0B55B0583B001936A462A23D02455
:1003300002251027D3706B46134E2406D91CA761E3
:1003400001223000A56101F087FB656101A96761A9
:1003500004223000A56101F07FFB6A462B23656112
:10036000D3706B46A761D91C01223000A56101F052
:1003700073FB6561042267613000A56101A901F08A
:100380006BFB656103B0F0BD00C00340F0B5CE4625
:10039000474680B5564C5749A544574801F080FA66
:1003A0000121002000F0ACF80121032000F0A8F8A2
:1003B0000121022000F0A4F8012000F0BBF8042085
:1003C00000F0B8F8FFABBC339946D02402251026C4
:1003D00001234A4624066562494666624648137010
:1003E0000122A661A56101F037FBC820656100F01C
:1003F0009DFC11234A46494613703F480122A661DD
:10040000A56101F029FBC820656100F08FFC3A234B
:100410004A46494613703848A6610122A56101F099
:100420001BFB6B46991D6623656101220B703248E8
:100430006661A56101F010FBC820656100F076FCE3
:1004400029234A46494613702B480122A661A5611B
:1004500001F002FBC820656100F068FCFC20FC2173
:100460004A46264C02AB000409021C6058609960A1
:100470000C331060516094600C329945F5D16B4695
:10048000DF1D2C239846D024FFF74AFF0225434660
:10049000102624063B703900A6610122A56116488A
:1004A00001F0DAFA962202A96561D200666112486B
:1004B000A56101F0D1FA3220656100F037FCFFF749
:1004C0002FFF434639003B700122A6610A48A5610F
:1004D00001F0C2FA9622656149466661D200A561C3
:1004E000054801F0B9FA3220656100F01FFCCAE747
:1004F00094F6FFFF8096980000C00340FC0000FCCB
:1005000010B54024084A83009A181268C00054406D
:10051000C0222240054CA44663441A60044B9C460A
:100520006044416010BDC04604C0014004D0014099
:10053000004001400123D0228340402112069362F3
:100540009361094A83009A181268C0005140C02282
:100550000A4006498C4663441A60054B9C460523B5
:10056000604443607047C04604C0014004D001406D
:10057000004001400FB400B5084883B001F072F9A3
:10058000049B002B07D005A91800019101F018F871
:10059000034801F067F9012001F02AF8B81A0010A9
:1005A000C81A0010F8B5EFF3108772B60E4E336814
:1005B000002BFCD0BFF35F8FCB08C4180725A446DF
:1005C000C45C01230D40AB4018002040234208D1F9
:1005D000624623431370BFF35F8F306087F3108848
:1005E000F8BD1000FFF7C6FF2C0100D0044A1078B8
:1005F000431CDBB2172B00D9102313707047C04681
:10060000F80100200021044B044ABFF35F8F02C3AE
:100610009342FAD17047C046000100D0800100D05B
:10062000054B064A1360064A136053609360D3601B
:1006300013615361936170478080808000E400E023
:1006400004E400E01F2318401E3B8340002905D02E
:10065000C021044A49005350136070478022014969
:100660008B50FAE700E100E070B50D00EFF3108663
:1006700072B60F4A1368002BFCD0BFF35F8F0D4B8F
:1006800010309B6884001B590B4A934203D09D4253
:1006900001D000F09DFD074B9B681D51BFF35F8F9C
:1006A000BFF35F8F0022024B1A6086F3108870BD83
:1006B000240100D000ED00E0CD010010024B9C466B
:1006C000614489000160704740000034F8B5134D63
:1006D000134E2C00FF27B5421ED22368002B0FD0EB
:1006E000FFF784FF01002800FFF7E8FFA780BFF3B2
:1006F0005F8F0834B4420FD223682500002BEFD15E
:10070000FFF774FF01002800FFF7D8FF2771BFF340
:100710005F8F0834B442EFD3F8BDC04640020020DA
:10072000480200200A4B1968EFF3108072B60A687D
:10073000002AFCD0BFF35F8F1B68BFF35F8F0022DE
:100740001A6080F3108840BF002000217047C04627
:1007500030040020F0B5DE4657464E464546E0B52B
:1007600085B0EFF30582032313409A001100039232
:10077000B64A5258904601229A409146B44B1A60AC
:100780004B46B4484363434608229B5E9A46002B7F
:100790003EDA43469B881BB2002B00DBA2E04346B7
:1007A0009B79002B00D0F4E0434608241C5F002C0A
:1007B00024DB42465269630094461B19DB00634404
:1007C0009C68DD68631C00D110E1A248039B84464D
:1007D0006344826A19001B69A61A9B1A9E4215D3AC
:1007E0004A46036A1A4211D09A4800F041FB241A83
:1007F0008D41002D02DCC3D1002CC1D040BF05B01B
:100800003CBC90469946A246AB46F0BD0C61EBE776
:10081000424652695B0093465344DB009B445B466F
:100820009E68DF6800F024FB801BB9410029B0DB23
:10083000002F00DAE5E05B46874A1B69934200D14E
:10084000D8E041465A460820085E5288000410430A
:100850005A465169984704000D0023002B4300D1EC
:10086000CFE0002D00DBE8E0361BAF4134003D0057
:100870005B469C60DD600021595E002900DA88E754
:1008800043465B6922009C462B0048004018C0008C
:1008900060448668C768921BBB41002B00DA78E78A
:1008A0004346664602000094019519810CE07B00E6
:1008B000DB19DB00F318009801999C68DD68001BC8
:1008C000A941002904DB1A000023D75E002FEEDACD
:1008D0005B461F805346138043469B881BB2002B08
:1008E00000DA5CE743461A69EFF3108172B61368C9
:1008F000002BFCD0BFF35F8F43469B8842461BB260
:100900009A4601235B4293801369BFF35F8F0022F5
:100910001A6081F310885346002B00DA3FE7434604
:100920005B699C46082343449B4653465F0043460D
:100930005744FF0008229A5E67445E46BC68FD6823
:10094000002A19DB3B000094019567469C4604E0B1
:100950001E000023F25E002A0BDB00980199530071
:100960009B18DB00FB189C68DD68001BA94100296F
:10097000EEDA6346BC461F005346338000217B5E9F
:100980003A809A46002BD0DA43469B79002B00D15F
:100990000AE7002342469371434646460821595EC2
:1009A00008364B1C00D129E747468C46556902E0C2
:1009B00006004B1C17D04B005B18DB00E8180A0040
:1009C000E95E43881BB2002BF2DA01235B42DC179D
:1009D0008360C4609445ECD031803B8994460380A9
:1009E0003A814B1CE7D1B8466446E0E66B1C00D068
:1009F000EBE6F9E65B465C6920002369984700282E
:100A000021D15B4642461B8813811269EFF31083A4
:100A100072B611680029FCD0BFF35F8F4246594679
:100A200052880A804246514651801269BFF35F8F57
:100A30000021116083F31088ABE6064800F018FA35
:100A400024184D4114E76568246806E71C0400205B
:100A50003C700540004005405507001070B52E4C15
:100A60002569002D04D00A212C48FFF727FE70BD10
:100A70002B4E0321300000F0F1F9E660FFF7B6FDE0
:100A8000284B03229C46D02322701B061B680121A1
:100A90006370254B6044A3600F2380002061022017
:100AA000638063694942A180198002311986473108
:100AB0001D83585218315A5275325C399952183286
:100AC000013199521832013199521832013199523B
:100AD000083518329D5202311832995218320131BC
:100AE0009952183201319952183201319952183203
:100AF000013199521832013199520C4B0C49DC608A
:100B000001303562FFF7B0FD01210320FFF79AFDA8
:100B1000084B1D60A7E7C046FC0100203004002000
:100B20000040054040000034FFFF10001C0400207E
:100B30005507001038600540F0B501000469EFF377
:100B4000108772B620680028FCD0BFF35F8F0220A8
:100B50000D5E48696C0084466419E4006444002D0D
:100B600001DB208848800869BFF35F8F002606609C
:100B700087F31088002D2EDBE3606388059801332E
:100B800020615B0406985B0CA26060611A1C002B5C
:100B90001FD090B22B04628018430A69EFF31086CD
:100BA00072B61368002BFCD0BFF35F8F8B88238055
:100BB0008D800B69BFF35F8F00221A6086F3108867
:100BC0000B7801329A40CB6804498C4663441A6022
:100BD000F0BD0122DDE701204042F9E73C200000A2
:100BE00030B543890A14934233DD53009B184269A0
:100BF000DB00944604696344EFF3108572B6226803
:100C0000002AFCD0BFF35F8F5A88090494B2090C04
:100C10008A4208D00369BFF35F8F00221A6085F310
:100C20001088002030BD8022120214435C80012312
:100C300002698371BFF35F8F0021116085F3108813
:100C4000054902788C469340C268012062441360D3
:100C5000E8E70020E6E7C0463C200000F0B50400CD
:100C60000D0006267642F717C64636196F4100B5C5
:100C700082B08F4214D811D000F002F932003B004C
:100C8000121A8B41002B15DC002B44D020002900C8
:100C900000F000F902B004BC9046F0BD8642EBD9EA
:100CA0000026002700F0ECF832003B00121A8B41BE
:100CB000002BE9DD00F0E4F832003B00121A8B4112
:100CC000002B0ADB00230193144B320000931448DD
:100CD0003B00FFF731FF0028D8DBB0460026BC46BA
:100CE000104A114F7B6A9C4504D8B96A8845CDD912
:100CF0009C45CBD11168EFF3108072B60B68002BC6
:100D0000FCD0BFF35F8F1368BFF35F8F1E6080F36B
:100D1000108820BFE6E7002AB8D0CBE725070010EF
:100D2000FC010020300400200040054070B50600A2
:100D300000F0A6F8FA2204000D0000233000002184
:100D4000920000F0C5FB00196941002902DBFFF7A2
:100D500085FF70BD012001494042F8E7FFFFFF7F9A
:100D6000F0B5CE46474680B504000D0083B0EFF3E2
:100D70000587002F0DD0364A0020536A8B4203D3DB
:100D8000926A0130A24250D303B00CBC90469946FF
:100D9000F0BD304B9846DB689946434648461E787E
:100DA00000F066F80B00494602000436B6007158A0
:100DB00020008E1A2900801A99418F4211DC0ED032
:100DC00020BF234A0020536AAB42DDD3926A013030
:100DD000A242D9D2EB1A581E8341D8B2D4E7864238
:100DE000EED900F04DF822002B00121A8B41002B97
:100DF00020DB00230193184B2200009340462B0078
:100E0000FFF79AFE011E15DD114B2E005A6A95421E
:100E10001CD89B6AA34217D34046FFF7E1FE0C4A59
:100E20000020536A9E42AFD8D0E75B1A581E834118
:100E3000D8B2A9E7064A0020536AAB42A4D3926A0B
:100E40000120A242A0D2C5E79542E5D120BFE3E749
:100E500000400540FC0100202507001010B5024AA3
:100E60000248FFF79FFB10BDCC1A0010E4030020DE
:100E70000300416A0A00986A596A8A42FAD17047A7
:100E8000034B596A0A00986A596A9142FAD170472D
:100E900000400540064A536A9942FCD807D1044BEA
:100EA00002E05A6A914202D19A6A8242F9D37047AB
:100EB00000400540F8B54E464546DE465746E0B58B
:100EC000884605000A991800160000F05FFA0A9B90
:100ED0006C001F02324B64199C46A4006444636892
:100EE00081469F4200D967602B1FDBB29A46012BD7
:100EF00030D9C02380229B01E31812011A60294BCC
:100F0000AD0059599B4600291BD1226876017240D9
:100F1000E0268023164052465B01E3181E60012A3A
:100F200030D9802380229B01E31812011A605B46AE
:100F30004A4667605A513CBC90469946A246AB4629
:100F4000F8BD586900F022FA431C5800C018033855
:100F5000FDD2DAE74346012BCBD1C02303229B010C
:100F6000E3181A60023AA3681A42FCD0226876019C
:100F70005640E022802316400A4A5B019346E3185C
:100F80001E60AD0042462168514003220A401A60AB
:100F9000012342469340A2681342FCD0C1E7C046F9
:100FA00000800040E8030020F0B546469846354BE7
:100FB0004F469C46D64644002418A4006444636807
:100FC000C0B50F001600FF2B02D880235B006360C2
:100FD000031FDBB29946012B31D9C02380229B012C
:100FE000E31812011A60284B850059599A460029C6
:100FF0001CD1226876017240E026802316404A46C2
:101000005B01E3181E60012A30D9802380229B01F6
:10101000E31812011A6080235B0042466360534666
:101020005A511CBC90469946A246F0BD586900F042
:10103000ADF9431C5800C0180338FDD2D9E7012F81
:10104000CBD1C02303229B01E3181A60023AA368A4
:101050001A42FCD0226876015640E02280231640D6
:10106000094A5B019246E3181E608500032221684D
:1010700079400A401A600123BB40A2681342FCD0A9
:10108000C3E7C04600800040E8030020014B800019
:10109000C0587047E8030020F8B504002048170046
:1010A0001D000E0000F072F90100380000F06EF92A
:1010B000069A2B04120313432268002A1FDB194AE5
:1010C000A21851424A41802149018C4652420A40AD
:1010D000154962440A6015490A60154917000D68F0
:1010E000AF43FBD1134A2660A1182122A0600A60F9
:1010F0002268002AFCDAE36008230B60F8BD3F2277
:1011000021680A40B242DAD1A2681205120D824269
:10111000D5D1EE21E268C9020A409A42CFD1EDE76B
:10112000001BB7000040FDBF00E0004000F00040A1
:1011300008C00040043000008023024A9B000B439B
:10114000D362704700800540142310B50100188851
:1011500004331B88984710BD162310B5010018886A
:1011600002331B88984710BDF0B5C64600B500296C
:1011700016D0142304000125984618278900461824
:101180004346216818883B88984701C4431E98410C
:1011900040420540A642F3D1280004BC9046F0BD71
:1011A0000125F9E7AA23064A1B0113608D235B0082
:1011B000D3600449044B19605368002BFCDA704774
:1011C0000040024000B0FA00006002407047C04694
:1011D00010B50148FFF7CEF9F01A001070B5074BB3
:1011E000074C9C4209D2013B1D1BAD080135AD00E7
:1011F0002D1908CC9847AC42FBD170BDB41A001031
:10120000781A0010054B064A06491A60064A074B31
:101210001A6010000B689843FBD1704700E0004053
:10122000BFCDFBFE08C00040FE7F3C0000F0004048
:10123000044BDB6C002B03D18022034BD2021A60DB
:101240007047C046000011504C201150044A054B15
:101250001A60054A1368DB018033FBD17047C04632
:10126000FFFFFF0100F0004008C000404022034B98
:101270009A675A671A67DA667047C04600F00140FD
:1012800010B5FFF7BFF910BD70B5044D044C280030
:10129000C022A16800F086F9A56070BD00000020A2
:1012A00000ED00E0002310B5294C82B0A367FFF7E2
:1012B00079FF0122274B1A60636C012BFCD10322BA
:1012C000254B1A60224A936B012BFCD1013300930A
:1012D0000121224A22480433FFF7DEFE05230121C3
:1012E0000093204A2048FFF7D7FE00220221042065
:1012F0001E4BFFF759FE0022012105201C4BFFF772
:1013000053FE0022002107201A4BFFF74DFE00225A
:1013100000210820174BFFF747FE8023DB000093D6
:10132000002200210920134BFFF7C4FD0022104BBF
:1013300000210620FFF738FE0420FFF7A7FE0E4924
:1013400000F024F801000020FFF7F6FE02B010BD07
:10135000008000403CB0004030B00040002F685991
:1013600000800240008C864700C00240001BB7008E
:1013700040597307006CDC0240420F000148042111
:10138000014B18472002002069110010114A936F89
:101390009B0813D210665166002905D0FFE7FFE7CE
:1013A000FFE7516F106F704704B5002801D000208F
:1013B000C04300F049FB002104BDC046F0B5146EE7
:1013C000556E576F166FFFF7E5FF14665566576742
:1013D0001667F0BD000000D0132370B51D78012DF5
:1013E00019D014DD2948FFF7B7FE06002848FFF79B
:1013F000B3FE284C80223100200000F0D3F8022DEB
:1014000006D02548FFF7A0FE244B186070BD214C84
:10141000234AA264F5E72E001E4C214AA3085B4232
:101420001E401D422FD0330022602020B1006118E1
:10143000801B0A604A608A60CA600A614A618A61E8
:10144000CA610A624A628A62CA620A634A638A633A
:10145000CA630A644A648A64CA640A654A658A651A
:10146000CA650A664A668A66CA660A674A674008A3
:10147000102803D18A67CA67A264C2E71E339B00A3
:10148000E250A264BDE70023CFE7C046534400000A
:1014900053460000340400204C3300002C0400208C
:1014A000A514001007B5604601880A0A0230DF2A39
:1014B000FAD1C9B2820804D30288408800041043DC
:1014C00000E00068014A5050039007BD340400203A
:1014D00051434343C9188C46110C83B24B4310B49B
:1014E000040C614392B280B2504362431C041B0C53
:1014F000001910BC59411304120CC0185141614429
:1015000070470000132310B512481C78FFF724FE23
:101510000100012C0AD003DD80220F4800F042F8C0
:101520000E48FFF711FE0E4B186010BD0A4C5422F6
:10153000200000F037F80B4B6365A365E365236675
:101540006366A366E36623676367A367E367236253
:10155000E361E5E753460000340500204C3300000A
:101560002C0400206915001007B5604601880A0A9E
:101570000230DF2AFAD1C9B2820804D30288408837
:101580000004104300E00068014A5050039007BD7A
:101590003405002001480421014B18473002002087
:1015A00069110010014B5B681847000030020020F1
:1015B00010B5002800D110BD00F008F9FBE7C046C7
:1015C00010B5094A0300146884B0002C08D0012229
:1015D00000910648524203A9A047012004B010BD63
:1015E00000F040F90020F9E718040020B1150010C0
:1015F00000BEFDE710B5FFF7FBFFC04670B5FFF773
:10160000EDFD074C074B9C4209D2013B1D1BAD0869
:101610000135AD002D1908CC9847AC42FBD170BD07
:10162000B41A0010B81A0010030010B508001B68A7
:101630001100984710BDC046F8B54746CE4680B564
:10164000437D07000D001600002B37D0002400203A
:10165000002A1EDD4B1E98461B4B9946002C2BD0B2
:1016600043461B5D0D3B5A425341DBB22A5D0A2AB9
:1016700013D00134A642F1DC864203DD311A3B6807
:1016800028189847AD19013D2B780D3B5A4253411C
:101690003B750CBC90469946F8BD002BE9D1A042A1
:1016A00003DA211A3B6828189847484602213B680C
:1016B000013498472000DDE73B7DD7E70368110040
:1016C00028009847E5E7C046901B0010F0B5DE46BD
:1016D00057464E464546E0B585B017001C0006004B
:1016E0000D00FFF7CDFB0023314A12184B41002BB0
:1016F00059DB304908008A4600F0B6F901906B1CAE
:1017000003D1300000F060F90500002C26D12A4BEF
:1017100098462A4B1C68002C15D0002F21D1284F49
:1017200002E02469002C0ED02368002BF9D03B681E
:10173000002B01D0A342F4D120002A003100C04781
:101740002469002CF0D1019B002B28D1280005B082
:101750003CBC90469946A246AB46F0BD194B984614
:10176000D7E7174B994602ABDF1D0A239B4602E0E1
:101770002469002CE7D02368002BF9D04B461B6866
:10178000002B01D0A342F3D12A0031002000C04732
:101790005B460122390020003B70C047E8E7504615
:1017A00000F04AF9D2E70122074B5242A1E7C046B6
:1017B00040420F00400200202916001010040020B3
:1017C0001404002039160010FFFFFF7FF0B5CE464D
:1017D000474680B583B06B460500DE1D3070FFF7CD
:1017E0004FFB00231A4A12184B41002B2CDB1949DE
:1017F0000800884600F038F9174B07001C68002CD9
:1018000016D0164B994602E02469002C10D02368AC
:10181000002BF9D04B461B68002B01D0A342F3D11B
:10182000200001223100FFF707FF2469002CEED1D0
:10183000002F05D1280003B00CBC90469946F0BD9E
:10184000404600F0F9F8F5E70122054B5242CEE799
:1018500040420F0040020020100400201404002029
:10186000FFFFFF7F70B5040000F0AEF80123010018
:10187000050001222000FFF729FF084B1C68002CFF
:1018800006D06368002B05D098472469002CF8D156
:10189000280070BD2469002CF3D1F9E71004002062
:1018A000F0B545468046424B574643445A42534161
:1018B0008022DE464E4692029446E0B55B423D4AA7
:1018C0001B04634413603C4A8A463C4985B013605C
:1018D0001D000A689543FBD10620FFF7D7FB43465E
:1018E0005A6802231A400192424604320292344A54
:1018F00080214244136053465E02DF0D03923B0099
:1019000032000224490006E0904206D302349219C4
:101910007B418C4201D0002BF6D02B008026270281
:10192000050099463F1B760002E03F1B012E3AD08E
:1019300039002800B346013EFFF728FD8245F4D266
:1019400059466143A9463502434680221C611B6803
:1019500092015D40FF23802694461B021D40029B9E
:10196000019A76016344464435601A6042465068E5
:101970000222039C072522604446246810406540EB
:10198000CF242C403460032418600E484044046087
:1019900048461A60FFF7FAFC05B03CBC90469946F1
:1019A000A246AB46F0BD4B462100A9461D00CBE741
:1019B0000040FCBF00E0004000F0004008C00040D4
:1019C000043000002420000010B5830727D00378DE
:1019D000002B26D00300032102E01A78002A1CD035
:1019E00001330B42F9D119680F4A104C8A188A4307
:1019F00022420FD1043319680B4A8A188A432242C3
:101A000008D104331968084A8A188A432242F1D05F
:101A100000E001331A78002AFBD1181A10BD030028
:101A2000E1E70020FAE7C046FFFEFEFE80808080EE
:101A3000F8B5C0460000000001B40248844601BC6D
:101A4000604700BF7101002001B40248844601BC18
:101A5000604700BFE501002001B40248844601BC94
:101A6000604700BF9901002001B40248844601BCD0
:101A7000604700BFC10000200512001031120010A5
:101A80007D13001095150010D913001005150010D6
:101A9000A51200104D1200106D12001081120010DE
:101AA000CD060010891200105D0A0010CD11001043
:081AB00021060010FD020010E8
:101AB8000A2A2A2A2050414E4943202A2A2A0A0063
:101AC8000A000000486172647761726520616C6188
:101AD800726D20256420616C726561647920636C85
:101AE80061696D6564000000486172642061737308
:101AF8006572740052656C6561736500626F6F741E
:101B0800325F77323571303830000000322E312E96
:101B1800310000007069636F00000000737437378C
:101B280038395F64656D6F004A756C203133203237
:101B38003032350005005250DE65F468381D00105B
:101B4800060052505422A29D301B0010060052502D
:101B5800861C0302241B001006005250BBFF3CB633
:101B68001C1B001006005250ABB36053141B00102E
:101B780006005250E182887F041B00100600525074
:0C1B8800D3F07542FC1A00100D0A00009A
:101B94003C1B0010481B0010541B0010601B00105D
:0C1BA4006C1B0010781B0010841B00104C
:101BB000F0B5C6461E0000B5040015000368EFF33B
:101BC000108272B619680029FCD0BFF35F8F04231E
:101BD000E356002B36DB2168BFF35F8F00200860DF
:101BE00082F31088D02200271206D7579F4203D1D4
:101BF000002004BC9046F0BD002398460CE022680B
:101C0000BFF35F8F4146116083F3108828003100D5
:101C100000F062F80028EBD12268EFF3108372B66F
:101C200011680029FCD0BFF35F8F22797F2AE6D9A3
:101C300022682771BFF35F8F0021116083F3108842
:101C40000120D6E7D0231B061B6823712368BFF34E
:101C50005F8F0021196082F310880120C9E7C04618
:101C60000268EFF3108172B61368002BFCD0BFF34B
:101C70005F8FFF2303710368BFF35F8F00221A6039
:101C800081F3108840BF704730B50400101E0AD0A1
:101C90000D008A180221E3681942FCD02B78013527
:101CA000A360AA42F7D1E3685B0704D50421A368C7
:101CB000E3681942FBD11021E3681942FCD1E368C3
:101CC0005B0704D50421A368E3681942FBD1012313
:101CD000236230BD7047C04601B40248844601BC4F
:101CE000604700BF610D0010100000000000000000
:101CF00000000000000000000000000000000000E4
:101D00004802002000000000000000000000000069
:101D1000503300004C3300005433000052330000B5
:101D20004D5300004D430000533400004334000085
:081D30000000000000000000AB
:04000005100001E9FD
:00000001FF
